:100000000C942A000C9447000C9447000C94470071
:100010000C9447000C9447000C9447000C94470044
:100020000C9447000C9498020C9447000C944700E1
:100030000C9447000C9447000C9447000C94470024
:100040000C9447000C9447000C9447000C94470014
:100050000C94470011241FBECFE5D8E0DEBFCDBF12
:1000600010E0A0E6B0E0E0E5F9E002C005900D92F6
:10007000AC3CB107D9F720E0ACECB0E001C01D9278
:10008000A03DB207E1F70E94BD020C94A6040C94B7
:100090000000672B09F09FC0009711F4D8980895CD
:1000A0008130910511F4D99808958230910511F4A9
:1000B000DA9808958330910511F4DB98089584301F
:1000C000910511F4DC9808958530910511F4DD98BF
:1000D00008958630910511F4DE98089587309105D2
:1000E00011F4DF9808958A30910511F4C0980895AD
:1000F0008B30910511F4C19808958C30910511F45D
:10010000C29808958D30910511F4C39808958E30EA
:10011000910511F4C49808958F30910511F4C59894
:1001200008958031910511F4C698089581319105A3
:1001300011F4C79808958431910511F4A898089591
:100140008531910511F4A99808958631910511F42E
:10015000AA9808958731910511F4AB9808958831D4
:10016000910511F4AC9808958931910511F4AD9879
:1001700008958A31910511F4AE9808958B31910557
:1001800011F4AF9808958E31910511F49098089567
:100190008F31910511F4919808958032910511F4F1
:1001A000929808958132910511F4939808958232BE
:1001B000910511F4949808958332910511F495985E
:1001C00008958432910511F496980895859709F061
:1001D0009FC097980895009711F4D89A0895813098
:1001E000910511F4D99A08958230910511F4DA9AA3
:1001F00008958330910511F4DB9A089584309105B8
:1002000011F4DC9A08958530910511F4DD9A089572
:100210008630910511F4DE9A08958730910511F426
:10022000DF9A08958A30910511F4C09A08958B30B1
:10023000910511F4C19A08958C30910511F4C29A78
:1002400008958D30910511F4C39A08958E3091056B
:1002500011F4C49A08958F30910511F4C59A089548
:100260008031910511F4C69A08958131910511F4F8
:10027000C79A08958431910511F4A89A089585319B
:10028000910511F4A99A08958631910511F4AA9A5D
:1002900008958731910511F4AB9A0895883191053D
:1002A00011F4AC9A08958931910511F4AD9A08952D
:1002B0008A31910511F4AE9A08958B31910511F4AC
:1002C000AF9A08958E31910511F4909A08958F3167
:1002D000910511F4919A08958032910511F4929A42
:1002E00008958132910511F4939A0895823291050F
:1002F00011F4949A08958332910511F4959A089512
:100300008432910511F4969A0895859709F4979A85
:100310000895CF93C82F80FF07C061E070E088E1A7
:1003200090E00E94490006C060E070E088E190E043
:100330000E944900C1FF07C061E070E089E190E0E0
:100340000E94490006C060E070E089E190E00E94F0
:100350004900C2FF07C061E070E08AE190E00E94BE
:10036000490006C060E070E08AE190E00E94490028
:10037000C3FF07C061E070E08BE190E00E9449009C
:1003800006C060E070E08BE190E00E944900CF91F0
:100390000895CF93C82F60E070E084E190E00E9460
:1003A00049008C2F0E94890161E070E086E190E0B5
:1003B0000E94490089EF90E00197F1F700C000002A
:1003C00060E070E086E190E00E94490089EF90E0F3
:1003D0000197F1F700C00000CF91089580E00E94DE
:1003E000C90181E00E94C9010895CF93C62F8130D1
:1003F00059F480E8860F82958F700E94C9018C2F76
:100400008F700E94C9010CC0823051F480EC860FBD
:1004100082958F700E94C9018C2F8F700E94C90134
:10042000CF91089580E00E94890187E893E10197C8
:10043000F1F700C0000083E00E94C90181EE94E062
:100440000197F1F700C0000083E00E94C9018DEB25
:100450009AE00197F1F700C0000083E00E94C90113
:1004600082E00E94C90182E00E94C90188E00E94E6
:10047000C90180E00E94C9018CE00E94C90180E0AE
:100480000E94C90186E00E94C9010895CF93C82F38
:1004900061E070E084E190E00E9449008C2F829539
:1004A0008F700E94890161E070E086E190E00E9417
:1004B000490089EF90E00197F1F700C0000060E08B
:1004C00070E086E190E00E94490089EF90E001979A
:1004D000F1F700C000008C2F8F700E94890161E04D
:1004E00070E086E190E00E94490089EF90E001977A
:1004F000F1F700C0000060E070E086E190E00E944B
:10050000490089EF90E00197F1F700C00000CF911A
:100510000895CF93DF93EC018881882331F02196F1
:100520000E94460289918111FBCFDF91CF910895FE
:100530001F920F920FB60F9211248F939F93AF9338
:10054000BF938091CC009091CD00A091CE00B0914E
:10055000CF000196A11DB11D8093CC009093CD00DA
:10056000A093CE00B093CF00BF91AF919F918F9198
:100570000F900FBE0F901F901895CF93DF9300D070
:100580001F92CDB7DEB780E884BF84BF8FEF84BBF6
:100590001FBC91E09EBD94E099BF1092CC001092D8
:1005A000CD001092CE001092CF001DBC1CBC7894E0
:1005B0001ABA87BB81BB18BA0E9412020E94EE01D0
:1005C00061E081E00E94F50180E690E00E948902EE
:1005D0000F2EFEE0AF2EB12CF02DC12CD12C00E05F
:1005E00010E0E12CF12C6894552453F8612C712C07
:1005F00033243394412C0F2EFAE08F2E912CF02DC2
:100600006894222422F88091CC009091CD00A09192
:10061000CE00B091CF002CB53DB5DC0199278827DD
:10062000820F931FA11DB11D803C914EA44EB105B8
:1006300008F443C0EF2819F401151105E9F158BA7F
:1006400058BA61E082E00E94F50183E690E00E94E2
:1006500089028FE39DE023E0815090402040E1F744
:1006600000C0000061E082E00E94F5018CE690E0AD
:100670000E9489028FE39DE023E08150904020405A
:10068000E1F700C0000061E082E00E94F50187E927
:1006900090E00E9489021092CC001092CD0010923E
:1006A000CE001092CF001DBC1CBCC62CD72C062D32
:1006B000172DE62CF72C01C078018FE0A816B104A5
:1006C0000CF043C0CB9B2AC058BA61E082E00E9484
:1006D000F5018DE790E00E9489029FE32DE083E021
:1006E000915020408040E1F700C0000061E082E0CE
:1006F0000E94F50185E990E00E9489021092CC00E9
:100700001092CD001092CE001092CF001DBC1CBCE8
:10071000C62CD72C062D172DE62CF72CCA9B1DC0F6
:1007200061E082E00E94F50186EA90E00E94890281
:100730001092CC001092CD001092CE001092CF00FB
:100740001DBC1CBCC32CD42C08C061E082E00E94FC
:10075000F50187EB90E00E948902C99B58C00130E7
:10076000110509F044C01A141B040CF0C0C091E03C
:10077000A91AB1081B82C501B4010E947E04805DE4
:100780008A83C50164E670E00E947E04B4010E9481
:100790007E04605D69830E94EE0161E081E00E9459
:1007A000F501CE0101960E94890261E082E00E947B
:1007B000F50185EA90E00E9489022AE028BB1092A8
:1007C000CC001092CD001092CE001092CF001DBC34
:1007D0001CBC8FEB97E229E0815090402040E1F76C
:1007E00000C00000062D172DE62CF72C10C0C114F8
:1007F000D10469F01092CC001092CD001092CE007E
:100800001092CF001DBC1CBC28BAE32CF42CC89B52
:100810005FC01092CC001092CD001092CE001092CA
:10082000CF001DBC1CBC1A141B040CF428BA81E0B8
:10083000E816F10409F04AC09FEFA91AB90A1B8211
:10084000C501B4010E947E04805D8A83C50164E60F
:1008500070E00E947E04B4010E947E04605D6983A2
:100860000E94EE0161E081E00E94F501CE01019657
:100870000E94890261E082E00E94F50185EA90E031
:100880000E94890229E028BB1092CC001092CD0072
:100890001092CE001092CF001DBC1CBC8FEB97E2D3
:1008A00029E0815090402040E1F700C0000061E065
:1008B00082E00E94F5018DE990E00E948902C62C39
:1008C000D72C062D172DE62CF72C02C0032D142D46
:1008D00018BA99CE1092CC001092CD001092CE0092
:1008E0001092CF001DBC1CBCE62CF72CF1CFC89990
:1008F000F1CF062D172DE62CF72CEACF97FB072E0C
:1009000016F4009407D077FD09D00E94920407FCEA
:1009100005D03EF4909581959F4F0895709561950F
:100920007F4F0895AA1BBB1B51E107C0AA1FBB1F25
:10093000A617B70710F0A61BB70B881F991F5A956B
:10094000A9F780959095BC01CD010895F894FFCF4B
:1009500031340074696D6520697320002020726154
:1009600064696F6163746976652020200052617448
:10097000756C65722067617269203A2920202020F9
:100980002020202000202020202020202020202087
:1009900020202020200061686F20766174696A61E0
:1009A0002061686F202000616172206468756B624D
:0C09B00065206E61202020202020200007
:00000001FF
