S00C00007372766F2E737265634E
S11300000C942A000C9434000C9434000C943400A6
S11300100C9434000C9434000C9434000C9434008C
S11300200C9434000C9434000C9434000C9434007C
S11300300C9434000C9434000C9434000C9434006C
S11300400C9434000C9434000C9434000C9434005C
S11300500C94340011241FBECFE5D8E0DEBFCDBF21
S11300600E9436000C9456000C94000081B38FEF6C
S113007081BB1ABA19BA8FB5826C8FBD8EB58961EE
S11300808EBD8FE19EE497BD86BDC89B06C086B534
S113009097B5805293409BBD8ABDC99BF6CF86B568
S11300A097B5885998409BBD8ABDEFCFF894FFCF90
S9030000FC
