:100000000C9430000C944D000C944D000C944D0059
:100010000C944D000C944D000C944D000C944D002C
:100020000C944D000C944D000C944D000C944D001C
:100030000C944D000C944D000C944D000C944D000C
:100040000C944D000C944D000C944D000C944D00FC
:100050000C944D006364696E6F70737578585B0023
:1000600011241FBECFE5D8E0DEBFCDBF10E0A0E673
:10007000B0E0E8EFF0E102C005900D92A837B107BB
:10008000D9F720E0A8E7B0E001C01D92A238B2077E
:10009000E1F70E94B0020C947A080C9400005D9B7A
:1000A000FECF8CB908955F9BFECF8CB10895672B6E
:1000B00009F09FC0009711F4D898089581309105F8
:1000C00011F4D99808958230910511F4DA980895C1
:1000D0008330910511F4DB9808958430910511F473
:1000E000DC9808958530910511F4DD9808958630E7
:1000F000910511F4DE9808958730910511F4DF9889
:1001000008958A30910511F4C09808958B309105B7
:1001100011F4C19808958C30910511F4C298089596
:100120008D30910511F4C39808958E30910511F426
:10013000C49808958F30910511F4C59808958031C1
:10014000910511F4C69808958131910511F4C7986D
:1001500008958431910511F4A89808958531910589
:1001600011F4A99808958631910511F4AA9808957B
:100170008731910511F4AB9808958831910511F4F8
:10018000AC9808958931910511F4AD9808958A319C
:10019000910511F4AE9808958B31910511F4AF9843
:1001A00008958E31910511F4909808958F3191053D
:1001B00011F4919808958032910511F49298089560
:1001C0008132910511F4939808958232910511F4CA
:1001D000949808958332910511F495980895843286
:1001E000910511F496980895859709F09FC0979806
:1001F0000895009711F4D89A08958130910511F46B
:10020000D99A08958230910511F4DA9A08958330CD
:10021000910511F4DB9A08958430910511F4DC9A6C
:1002200008958530910511F4DD9A08958630910581
:1002300011F4DE9A08958730910511F4DF9A08953C
:100240008A30910511F4C09A08958B30910511F40C
:10025000C19A08958C30910511F4C29A08958D3099
:10026000910511F4C39A08958E30910511F4C49A42
:1002700008958F30910511F4C59A08958031910544
:1002800011F4C69A08958131910511F4C79A089521
:100290008431910511F4A89A08958531910511F4DE
:1002A000A99A08958631910511F4AA9A0895873183
:1002B000910511F4AB9A08958831910511F4AC9A27
:1002C00008958931910511F4AD9A08958A31910507
:1002D00011F4AE9A08958B31910511F4AF9A0895F7
:1002E0008E31910511F4909A08958F31910511F492
:1002F000919A08958032910511F4929A089581326D
:10030000910511F4939A08958232910511F4949A0B
:1003100008958332910511F4959A089584329105D8
:1003200011F4969A0895859709F4979A0895CF93B2
:10033000C82F80FF07C061E070E084E090E00E9479
:10034000570006C060E070E084E090E00E94570033
:10035000C1FF07C061E070E085E090E00E945700B7
:1003600006C060E070E085E090E00E945700C2FFA8
:1003700007C061E070E086E090E00E94570006C090
:1003800060E070E086E090E00E945700C3FF07C085
:1003900061E070E087E090E00E94570006C060E0F6
:1003A00070E087E090E00E945700CF910895CF93CE
:1003B000C82F60E070E080E090E00E9457008C2F32
:1003C0000E94970161E070E082E090E00E94570097
:1003D00089EF90E00197F1F700C0000060E070E065
:1003E00082E090E00E94570089EF90E00197F1F7DA
:1003F00000C00000CF91089580E00E94D70181E005
:100400000E94D7010895CF93C62F813059F480E818
:10041000860F82958F700E94D7018C2F8F700E945B
:10042000D7010CC0823051F480EC860F82958F701A
:100430000E94D7018C2F8F700E94D701CF91089511
:1004400080E00E94970187E893E10197F1F700C0EF
:10045000000083E00E94D70181EE94E00197F1F75C
:1004600000C0000083E00E94D7018DEB9AE0019765
:10047000F1F700C0000083E00E94D70182E00E94F3
:10048000D70182E00E94D70188E00E94D70180E076
:100490000E94D7018CE00E94D70180E00E94D70122
:1004A00086E00E94D7010895CF93C82F61E070E0E5
:1004B00080E090E00E9457008C2F82958F700E9400
:1004C000970161E070E082E090E00E94570089EFC0
:1004D00090E00197F1F700C0000060E070E082E07A
:1004E00090E00E94570089EF90E00197F1F700C07B
:1004F00000008C2F8F700E94970161E070E082E015
:1005000090E00E94570089EF90E00197F1F700C05A
:10051000000060E070E082E090E00E94570089EF08
:1005200090E00197F1F700C00000CF910895CF93BC
:10053000DF93EC018881882331F021960E945402D8
:1005400089918111FBCFDF91CF91089582E08BB922
:1005500088E18AB986E880BD10BC8CE089B908952D
:10056000CF93DF93CDB7DEB72C970FB6F894DEBFED
:100570000FBECDBF8FEF8ABB91E097BB84BB18BA8B
:1005800060E875E280E090E00E94A6020E942002EE
:100590000E94FC0160E070E08FE490E00E94730331
:1005A00008E710E0F8019383828363E570E080E060
:1005B00090E00E947303F8019183808360E081E002
:1005C0000E94030286E690E00E949702CE01019607
:1005D0006C010F2EF5E7EF2EF0E0FF2EF02D689462
:1005E000BB24B1F8DF92CF92FF92EF920E94BE033C
:1005F0000F900F900F900F9089818230F1F40E943C
:10060000FC0160E081E00E94030281E088BB8E0172
:10061000095F1F4FDF92CF92FF92EF920E94BE03BD
:1006200089810F900F900F900F90833031F090E000
:10063000F801819391938F01EDCF0B851C854AE0E2
:10064000BE016E5F7F4FC8010E944E03CE0102962D
:100650000E94970280E20E9454020933110519F0AA
:100660000634110561F481E085BBFFE32DE083E0F2
:10067000F15020408040E1F700C000000AC0B5BA48
:100680009FE3EDE0F3E09150E040F040E1F700C07F
:10069000000018BA0E94FC0115BAA4CFBB274A304B
:1006A00031F4992322F4BDE2909581959F4F0C94EB
:1006B0005A03BB27FB015527AA27880F991FAA1F9A
:1006C000A41710F0A41B83955051B9F7A05DAA336D
:1006D00008F0A95DA193009779F7B111B193119238
:1006E000CB010C94D9070F931F93CF93DF930097FF
:1006F00031F46115710519F480E090E03AC08B0186
:10070000EC016EE070E081E090E00E948106FC0167
:10071000892B91F380E883830115110571F013870C
:10072000028781E883838091780090917900892BFA
:1007300021F4F0937900E09378002097C9F0D187F5
:10074000C08783818260838380917A0090917B004F
:10075000892B71F4F0937B00E0937A0080917C0008
:1007600090917D00892B21F4F0937D00E0937C0033
:10077000CF01DF91CF911F910F910895A0E0B0E0DC
:10078000E4ECF3E00C945308AE014B5F5F4FFA01C9
:1007900061917191AF0180917800909179000E94F0
:1007A0007005E2E00C946F0820FD09C0FC0123FDF8
:1007B00005C022FF02C07383628351834083089582
:1007C00044FD17C046FD17C0AB01BC01DA01FB01B7
:1007D000AA0FBB1FEE1FFF1F1094D1F74A0F5B1F1C
:1007E0006E1F7F1FCB01BA01660F771F881F991FED
:1007F00009C033E001C034E0660F771F881F991FDE
:100800003150D1F7620F711D811D911D08950F9315
:100810001F93CF93DF938C01C8010E94E907EC017D
:1008200097FD08C00E94BE07892BB1F7B801CE0121
:100830000E942708CE01DF91CF911F910F9108955B
:100840008F929F92AF92BF92EF92FF920F931F935E
:10085000CF93DF938C01D62F7A01B22E0E94E90745
:100860009C0133272B32310531F02D32310561F4F3
:100870008B2D8068B82ED15011F480E068C0C8017B
:100880000E94E90797FDF9CFCB2DCD7F2B2D20734B
:1008900009F58033F9F4AA24AA94AD0E09F443C0F3
:1008A000C8010E94E90797FD3EC09C012F7D3327B8
:1008B0002835310549F4C264D250A9F1C8010E941B
:1008C000E90797FF07C02FC0B6FE02C0C26001C093
:1008D000C261DA2D812C912C540120ED280F283093
:1008E00080F0C4FF04C0B8010E94270819C02A3054
:1008F00040F0C6FFF8CF2F7D3FEE320F363098F72D
:1009000027504C2FC501B4010E94E0034B015C014C
:10091000C260D15059F0C8010E94E90797FFDDCFAE
:10092000C1FD04C0AACF812C912C5401C7FF08C07F
:10093000B094A09490948094811C911CA11CB11C33
:100940002C2FB501A401C7010E94D40381E0DF91DF
:10095000CF911F910F91FF90EF90BF90AF909F901C
:100960008F900895A0E2B0E0E8EBF4E00C94460824
:100970005C01962E7A01F9018E010F5F1F4F68010D
:1009800080E2D8011D928A95E9F7D50113968C90E3
:1009900080E090E0612C712C30E061E070E083FC3D
:1009A000259183FE21918F01522E211103C080E0F9
:1009B00090E092C02E3511F4009751F1432F50E092
:1009C000481759073CF42D3559F12D3219F4772089
:1009D00009F103C0772009F46AC0452D4695469574
:1009E0004695D601A40FB11D452D47708B0102C05D
:1009F000000F111F4A95E2F7A8015C91452B4C931B
:100A0000651459F0561410F45394E7CF5A94E5CF77
:100A100031E004C07724739401C0712C0196BFCFDC
:100A2000772019F08E8180628E83311103C0882473
:100A3000839417C0F6019E012F5D3F4F8081809502
:100A400081932E173F07D1F7F2CFE114F10429F07B
:100A5000D7018C93F70131967F019A94812C9920CC
:100A6000F9F0C5010E94E90797FD18C0FC01FF27B6
:100A700023E0F595E7952A95E1F7EC0DFD1D208122
:100A800030E0AC014770552702C0359527954A954F
:100A9000E2F720FDDACFB5010E942708811087CF49
:100AA000E114F10411F0D7011C92C80115C0422FC6
:100AB000469546954695D601A40FB11D422F477025
:100AC0008B0102C0000F111F4A95E2F7A8015C914B
:100AD000452B4C93622EA2CFA096EFE00C946208B7
:100AE000A0E0B0E0E6E7F5E00C9446086C01EB010D
:100AF0005A01FC0117821682512CF601E380FE0197
:100B0000E3FC8591E3FE8191182FEF01882309F41E
:100B1000EEC090E00E94BE07892B21F0C6010E9422
:100B20000704EBCF153241F4FE01E3FC1591E3FE1F
:100B30001191EF01153281F4C6010E94E90797FD7A
:100B4000D4C0412F50E09C01332724173507A9F268
:100B5000B6010E942708CBC01A3239F4E3FC159184
:100B6000E3FE1191EF0101E001C000E0F12C20ED66
:100B7000210F2A3080F402606F2D70E080E090E059
:100B800040E20E94E003F62EFE01E3FC1591E3FE35
:100B90001191EF01ECCF01FF03C0F11003C0A7C01A
:100BA000FF24FA94183619F01C3651F010C0FE01DB
:100BB000E3FC1591E3FE1191EF01183641F4086052
:100BC0000460FE01E3FC1591E3FE1191EF01112396
:100BD00009F48DC0612F70E084E590E00E94C707A2
:100BE000892B09F484C000FD07C0F5018080918045
:100BF000C50102965C0102C0812C912C1E3651F475
:100C0000F6014681578160E070E0202FC4010E9408
:100C1000D40373CF1336A9F401FD02C0FF24F3946B
:100C2000C6010E94E90797FD60C08114910429F074
:100C3000F4018083C40101964C01FA94F110F0CFC5
:100C400050C01B3559F49E01A4016F2DC6010E94AE
:100C5000B204EC01892B09F044C03EC0C6010E94D9
:100C6000070497FD42C01F3661F128F4143639F1AC
:100C7000193651F128C0133771F0153701F123C02F
:100C80008114910429F0F4016082C40101964C01A1
:100C9000FA94FF2071F0C6010E94E9073C0197FD1C
:100CA00008C00E94BE07892B59F3B601C3010E94F8
:100CB000270881149104A9F0F401108212C0006287
:100CC00003C0006101C00064202FA4016F2DC60184
:100CD0000E942004811105C0F6018381807329F4EC
:100CE00006C000FD0ACF539408CF552019F0852D7A
:100CF00090E002C08FEF9FEFCDB7DEB7EFE00C942E
:100D000062080F931F93CF93DF93869F8001879F85
:100D1000100D969F100D1124C8010E949D06EC0134
:100D2000009729F0A80160E070E00E94D207CE0190
:100D3000DF91CF911F910F9108950F931F93CF9340
:100D4000DF938230910510F482E090E0E091800022
:100D5000F091810020E030E0A0E0B0E0309719F1A0
:100D6000408151810281138148175907C8F08417C7
:100D7000950769F4109731F012960C931297139619
:100D80001C9327C0009380001093810022C021157E
:100D9000310519F04217530718F49A01BD01EF010C
:100DA000DF01F801DBCF21153105F9F0281B390BE4
:100DB0002430310580F48A819B816115710521F011
:100DC000FB019383828304C0909381008093800011
:100DD000FE01329644C0FE01E20FF31F819391930E
:100DE00022503109398328833AC020917E00309106
:100DF0007F00232B41F420916200309163003093F7
:100E00007F0020937E0020916000309161002115C9
:100E1000310541F42DB73EB7409164005091650013
:100E2000241B350BE0917E00F0917F00E217F30761
:100E3000A0F42E1B3F0B2817390778F0AC014E5F4A
:100E40005F4F2417350748F04E0F5F1F50937F0008
:100E500040937E008193919302C0E0E0F0E0CF01E7
:100E6000DF91CF911F910F910895CF93DF9300975A
:100E700009F481C0FC01329713821282A091800094
:100E8000B0918100109781F420813181820F931FEE
:100E900020917E0030917F002817390751F5F0939B
:100EA0007F00E0937E0067C0ED0120E030E0CE17C8
:100EB000DF0740F44A815B819E0141155105F1F045
:100EC000EA01F5CFD383C28340815181840F951FFE
:100ED000C817D90759F488819981840F951F029604
:100EE000918380838A819B8193838283211531053D
:100EF00029F4F0938100E09380003DC0E901FB8379
:100F0000EA8349915991C40FD51FEC17FD0761F48D
:100F100080819181840F951F0296E90199838883CE
:100F2000828193819B838A83E0E0F0E012968D9129
:100F30009C911397009719F0FD01DC01F7CF8D917B
:100F40009C9111979D012E5F3F4F820F931F20911F
:100F50007E0030917F002817390769F4309729F413
:100F6000109281001092800002C013821282B0930E
:100F70007F00A0937E00DF91CF91089591110C9492
:100F80004008803219F089508550C8F70895FC0157
:100F90000590061621F00020D9F7C0010895319779
:100FA000CF010895DC0101C06D9341505040E0F73E
:100FB0000895DC01FC01672F71917723E1F73297E7
:100FC00004C07C916D9370836291AE17BF07C8F324
:100FD0000895CF93DF93EC012B8120FF33C026FFD0
:100FE0000AC02F7B2B838E819F8101969F838E83E6
:100FF0008A8190E029C022FF0FC0E881F9818081B9
:10100000082E000C990B009719F420622B831AC04C
:101010003196F983E8830EC0EA85FB85099597FF31
:1010200009C02B81019611F080E201C080E1822B82
:101030008B8308C02E813F812F5F3F4F3F832E83DC
:10104000992702C08FEF9FEFDF91CF910895FB01A9
:10105000238120FF12C026FD10C08F3F3FEF930772
:1010600061F082832F7D2064238326813781215084
:10107000310937832683992708958FEF9FEF0895CD
:101080009927882708952F923F924F925F926F92EF
:101090007F928F929F92AF92BF92CF92DF92EF9208
:1010A000FF920F931F93CF93DF93CDB7DEB7CA1B89
:1010B000DB0B0FB6F894DEBF0FBECDBF09942A88B4
:1010C000398848885F846E847D848C849B84AA845C
:1010D000B984C884DF80EE80FD800C811B81AA81E9
:1010E000B981CE0FD11D0FB6F894DEBF0FBECDBFB4
:0810F000ED010895F894FFCF13
:1010F800000082002000202050756E636820612067
:081108004361726400256300DD
:00000001FF
